:020000040800F2
:10000000B840002029070108B5010008330701089E
:10001000B7010008BB010008BF0100080000000094
:10002000000000000000000000000000C301000804
:10003000C5010008000000003F070108C7010008D3
:100040004307010843070108430701084307010864
:100050004307010843070108430701084307010854
:100060004307010843070108430701084307010844
:100070004307010843070108430701084307010834
:100080004307010843070108430701084307010824
:100090004307010843070108430701084307010814
:1000A0004307010843070108430701084307010804
:1000B00043070108D9010008E101000843070108CE
:1000C00043070108430701084307010843070108E4
:1000D0004307010843070108E90100084307010835
:1000E00043070108430701084307010843070108C4
:1000F00043070108430701084307010843070108B4
:1001000043070108430701084307010843070108A3
:1001100043070108F10100084307010843070108EC
:100120004307010843070108430701084307010883
:100130004307010843070108430701084307010873
:10014000430701084307010843070108F993000822
:100150004307010843070108430701084307010853
:100160004307010843070108430701084307010843
:100170004307010843070108430701084307010833
:100180004307010843070108DFF80CD014F000FB17
:1001900000480047A1010008B840002000BFFEE76A
:1001A00000F054F90249087001E000F0F5F8FCE7AE
:1001B00000000020704700BFFEE700BFFEE700BF61
:1001C000FEE77047704710B50B480068401C0A49AD
:1001D000086006F025F810BD10B506F067F910BDEF
:1001E00010B506F044FA10BD10B508F0D4F910BDF2
:1001F00010B508F092FA10BD880500208748C08924
:10020000401C8649C88108468088401C00B288800E
:100210000846C088401C00B2C88008460089401CBF
:1002200000B2088108464089401C00B24881084657
:100230008089401C00B2888108460078012804D1DA
:1002400008464078401C487002E00120734908705D
:10025000704710B5012006F022F8714807F046FDFE
:1002600003F021FC10BD10B52DED028B002006F02F
:1002700016F8B0EE408A05F0A3FF00EE100AB8EEC3
:10028000400ADFED680A80EE201A674880ED001A08
:1002900006F0C6FDB0EE480A07F06AF8B0EE480A6C
:1002A00001F036F96148B0EE480A04F09CFB05F015
:1002B00087FF00EE100AB8EE400ADFED5A0A80EE22
:1002C000201A594880ED011ABDEC028B10BD10B503
:1002D0002DED028B022005F0E2FFB0EE408A05F022
:1002E0006FFF00EE100AB8EE400ADFED4E0A80EE16
:1002F000201A4D4880ED021A4D48D0ED063AB0EE76
:10030000633AD0ED053AF0EE632AD0ED043AB0EE50
:10031000632AD0ED0C3AF0EE631AD0ED0B3AB0EE52
:10032000631AD0ED0A3AF0EE630AF6EE003A68EE90
:10033000233AB0EE630A3F4A3F49404801F0EEFDE0
:10034000B0EE480A00F0A4FB05F03AFF00EE100AF8
:10035000B8EE400ADFED330A80EE201A324880ED15
:10036000031ABDEC028B10BD10B508F053F810B1A4
:1003700001203349087007F079FC10BD10B500F07A
:100380004CFB01F06AFC10BD10B504F065FD07F0F0
:10039000F9FC09F0A7FD10BD10B520480078012830
:1003A0003BD12848008800B227490880FFF751FF59
:1003B0001A48B0F90400022804DB0020174988809D
:1003C000FFF751FF1548B0F90600052804DB0020AF
:1003D0001249C880FFF77BFF1048B0F908000A28CF
:1003E00004DB00200D490881FFF7BEFF0B48B0F980
:1003F0000A00142804DB002008494881FFF7BEFFEB
:100400000648B0F90C00322804DB0020034988813B
:10041000FFF7BAFF00200149087010BD280700202F
:100420002A06002000247449380700208C3300205D
:100430009C33002078000020740000207000002011
:1004400044050020980500200200002010B54FF45C
:10045000806009F099FD05F081FE06F022FB05F0B1
:1004600079FF322006F022FA04F080FD142006F015
:10047000B9FD07F001FC094808F01AF800F038FA55
:10048000642005F0C1FE09F027FD05F043FF044894
:10049000007808B907F09DFD012010BD20A10700DC
:1004A000C405002038B50122FBA1FC4812F04EFB28
:1004B0000446C4B100221146F7A013F040FB0446E5
:1004C00014B14FF0FF3038BD0022F3A1F34812F011
:1004D0003DFB04463CB10022EFA1104612F036FB72
:1004E0006FF00100EFE7EEA1EE4812F0E6FF0446E0
:1004F0003CB10022E8A1104612F028FB6FF0020088
:10050000E1E70122E8A1EB4812F04BFB04463CB1C5
:100510000022E1A1104612F019FB6FF00300D2E7B0
:100520006B464022E449E34812F0EDFB0446009894
:1005300078B3E04812F046FE0122E0A1DD4812F057
:1005400030FB04463CB10022D3A1104612F0FEFA63
:100550006FF00300B7E76B46C022DA49D54812F0C6
:10056000D2FB0446009848B1D24812F02BFE00227C
:10057000C9A1104612F0EAFA0120A4E7CD4812F012
:1005800021FE0022C4A1104612F0E0FA6FF0030031
:1005900099E7FFE7C74812F015FE0022BEA11046FA
:1005A00012F0D4FA6FF004008DE738B50022BAA13A
:1005B000BA4812F0CBFA0446C4B100221146B6A0E4
:1005C00013F0BDFA044614B14FF0FF3038BD0022DD
:1005D000B1A1B24812F0BAFA04463CB10022AEA171
:1005E000104612F0B3FA6FF00100EFE7ACA1AD488E
:1005F00012F063FF04463CB10022A7A1104612F09E
:10060000A5FA6FF00200E1E70A22A7A1A94812F0BB
:10061000C8FA04463CB100229FA1104612F096FA97
:100620006FF00300D2E76B464022A349A14812F0C5
:1006300063FC044674BB9F4812F0C4FD0A229FA1CC
:100640009C4812F0AEFA04463CB1002292A110463A
:1006500012F07CFA6FF00300B8E76B46C0229949AC
:10066000944812F049FC04464CB9924812F0AAFD95
:10067000002289A1104612F069FA0120A6E78D48F0
:1006800012F0A0FD002284A1104612F05FFA6FF074
:1006900003009BE7874812F095FD00227EA11046DB
:1006A00012F054FA6FF0040090E710B58648824BC0
:1006B000D3E900219B68C0E90E1342637E4BD3E966
:1006C00003215B69C0E91113026480487A4B183337
:1006D0000ECB08300EC07C4A774B24330BCB5832FC
:1006E0000BC2754890ED0D0A774880ED190A7248E3
:1006F00090ED0E0A744880ED1A0A7548714C1ECCB4
:1007000054301EC064386F49D1E905340A69C9699B
:10071000C0E91A34426601676A4BD3E909141A6AC0
:10072000DB6AC0E91F43C0E91D216A48654BD3E974
:100730000C41D3E90E23C0E91541C0E917236149F3
:10074000D1E911430A6CC96CC0E91A4342660167DA
:100750005C49D1E91434D1E91621C0E91D34C0E95E
:100760001F2110BD10B500F081F905F034FC05F033
:1007700051FC10BD10B50022012147A013F0DFF994
:100780009FED550A4F4880ED040A9FED530A80ED16
:10079000000A9FED520A80ED080A9FED510A80ED94
:1007A000060A9FED4F0A80ED020AB7EE000A80EDBF
:1007B0000A0AB0EE000A80ED050AB0EE000A80EDEC
:1007C000010AB7EE000A80ED090AB7EE000A80EDD3
:1007D000070AB7EE000A80ED030AB7EE000A80EDC3
:1007E0000B0AB6EE000A80ED100AB6EE000A80EDA4
:1007F0000C0A9FED3C0A80ED140A9FED3B0A80ED48
:10080000120A9FED390A80ED0E0A9FED370A80ED3E
:10081000160A9FED360A80ED110A9FED340A80ED2D
:100820000D0A9FED2F0A80ED150AB7EE000A80ED44
:10083000200AB7EE000A80ED220AB7EE000A80ED2A
:10084000210AB7EE000A80ED240AB7EE000A80ED17
:10085000260AB7EE000A80ED250AB7EE000A80ED01
:10086000180AB7EE000A80ED1A0AB7EE000A80ED0A
:10087000190AB7EE000A80ED1C0AB7EE000A80EDF7
:100880001E0AB7EE000A80ED1D0AFFF78EFEFFF785
:100890000CFFFFF767FF10BD303A00004C08002046
:1008A0002F000000A428002073656E736F722E6203
:1008B000696E00007C1800204C0700207069642ECF
:1008C00062696E008C0700209C330020E005002048
:1008D000C028002084290020CDCC4C3F9A99993F14
:1008E000CDCCCC3DCDCC4C3ECDCC4C3D9A99993E17
:1008F00010B5FFF7D7FD0446002C04DAFFF73AFFE6
:10090000012051490870FFF7D0FEFFF72BFF10BD03
:1009100010B504464D4894E80E0034300EC04C48E3
:1009200094E80E000EC0494890ED190A484880ED41
:100930000D0AFFF73AFE10BD10B50446434894E88F
:100940000E0040300EC0424894E80E000C300EC03D
:100950003E4890ED1A0A3E4880ED0E0AFFF725FE4C
:1009600010BD10B504463B4894E80E0008300EC098
:10097000374894E80E0018300EC0FFF716FE10BD81
:1009800010B50446314894E80E0058300EC0304887
:1009900094E80E0024300EC0FFF707FE10BD10B51E
:1009A0002D482E49D1E916344A6D096E80E81C00A5
:1009B000C16001462948D0E91A34426E006FC1E98E
:1009C00005340A61C8612548D0E91E34426FD0F869
:1009D0008000C1E909340A62C8620A46204CD4E9A1
:1009E0001530D4E91714C2E90E14C2E90C301046D0
:1009F0001B49D1E91942D1E91B31C0E91042C0E9D4
:100A000012311749D1E91D42D1E91F31C0E9144221
:100A1000C0E91631FFF7C9FD10BD10B511480088B7
:100A200020B110480088401C0E4908800D480088FD
:100A30003C2807DD00200B4908800B48007808B9E6
:100A4000FFF7ADFF10BD0000040000209C33002024
:100A50004C070020E00500208C070020C028002063
:100A600084290020AE04002000050020B7EE000A13
:100A7000FE4880ED180AB7EE000A80ED1C0AB7EEBA
:100A8000000A80ED200A9FEDFA0A80ED300A7047D7
:100A900010B52DED0E8BB0EE408AF648D0ED000A71
:100AA000B0EE600AF3EE0E0A02F0A9F8DFEDF20AEA
:100AB00080EE201AB3EE090A21EE000AEF4880ED1D
:100AC000000AEC48D0ED010AF1EE600AB0EE600ACF
:100AD000F3EE0E0A02F093F8DFEDE70A80EE201A3B
:100AE000B3EE090A21EE000AE44880ED010AE44869
:100AF000007808BBDF48D0ED030AB0EE600ADFEDF6
:100B0000E10A02F0CBF8DFEDDC0A80EE201A9FED5F
:100B1000DE0A21EE000ABDEEC00A10EE100A00B295
:100B200000EE100AF8EEC00AD44890ED020A00EE7A
:100B3000880A80ED020A36E0D04890ED020AD348D8
:100B4000D0ED000A30EEC00A10EE101A084613F07D
:100B50000AFD41EC1C0B18EE100A13F004FD41ECE9
:100B60001E0B9FEDCB0B53EC102B13F0FDFB41EC58
:100B70001D0B53EC1C2B13F0F7FB41EC1A0BBF4879
:100B800090ED020A10EE101A084613F0ECFC41EC4E
:100B90001B0B53EC1A2B13F040FB41EC190B13F019
:100BA00025FDB6498860B548D0ED020AB0EE600A6E
:100BB00002F088F8B14880ED020AB748D0ED000A8B
:100BC000AE4890ED001A70EE810AB44890ED001A1C
:100BD00070EEC10AB0EE600A02F074F8B04880ED21
:100BE000000AAD48D0ED010AA44890ED011A70EE5C
:100BF000810AAC4890ED001A70EEC10AB0EE600AAE
:100C000002F060F8A64880ED010AA348D0ED020A80
:100C10009A4890ED021A70EE810A9C4890ED001AF5
:100C200070EEC10AB0EE600A02F04CF89C4880ED0C
:100C3000020A90ED000AB5EEC00AF1EE10FA02DDEC
:100C400090ED000A04E0964890ED000AB1EE400AEB
:100C5000F3EE0E0A80EE201A914880ED2D1A90EDE9
:100C6000010AB5EEC00AF1EE10FA02DD90ED010ABC
:100C700004E08B4890ED010AB1EE400AF3EE0E0A53
:100C800080EE201A864880ED2E1A90ED020AB5EE0D
:100C9000C00AF1EE10FA02DD90ED020A04E080488D
:100CA00090ED020AB1EE400AF3EE0E0A80EE201A31
:100CB0007B4880ED2F1ADFED7C0A80EE880AD0EDAC
:100CC000000A90ED031A70EEC10A90ED161AF2EECA
:100CD000041A21EE211A60EE810A60EE200A90EDDE
:100CE0002D1A9FED720ADFED721A01EE810A20EED5
:100CF000800A80ED0C0ADFED6C0A80EE880AD0EDE8
:100D0000010A90ED041A70EEC10A90ED1A1AF2EE83
:100D1000041A21EE211A60EE810A60EE200A90ED9D
:100D20002E1A9FED620ADFED621A01EE810A20EEB3
:100D3000800A80ED0D0ADFED5C0A80EE880AD0EDB6
:100D4000020A90ED051A70EEC10A90ED1E1AF2EE3D
:100D5000041A21EE211A60EE810A60EE200A90ED5D
:100D60002F1A9FED520ADFED521A01EE810A20EE92
:100D7000800A80ED0E0A90ED170AD0ED000A60EEB1
:100D8000200A90ED060A00EE880A80ED060A90ED32
:100D90001B0AD0ED010A60EE200A90ED070A00EE72
:100DA000880A80ED070A90ED1F0AD0ED020A60EE76
:100DB000200A90ED080A00EE880A80ED080A3D48F6
:100DC00090ED000AF6EE000A20EE200AF3EE090A82
:100DD00020EE200A324880ED090A364890ED000ADC
:100DE000F6EE000A20EE200AF3EE090A20EE200AB1
:100DF0002B4880ED0A0A2F4890ED000AF6EE000A13
:100E000020EE200AF3EE090A20EE200A244880EDA5
:100E10000B0A90ED060AD0ED090AF1EE600AB4EE75
:100E2000E00AF1EE10FA04D290ED090AB1EE400AA0
:100E30000FE01B4890ED060AD0ED090AB4EEE00A77
:100E4000F1EE10FA02DD90ED090A02E0144890ED8F
:100E5000060A134880ED060A90ED070AD0ED0A0A4B
:100E6000F1EE600AB4EEE00A26E00000C02800209F
:100E7000CDCC4C3EF02B00200000FA43482A002045
:100E80000C000020000020420000164378000020E3
:100E90001F85EB51B81E0940542A00207000002025
:100EA00084290020740000200AD7A33B6666263FF1
:100EB0003333B33E10000020F1EE10FA04D290ED6F
:100EC0000A0AB1EE400A0FE0F84890ED070AD0EDAB
:100ED0000A0AB4EEE00AF1EE10FA02DD90ED0A0A19
:100EE00002E0F24890ED070AF04880ED070A90ED25
:100EF000080AD0ED0B0AF1EE600AB4EEE00AF1EE5A
:100F000010FA04D290ED0B0AB1EE400A0FE0E74868
:100F100090ED080AD0ED0B0AB4EEE00AF1EE10FAFB
:100F200002DD90ED0B0A02E0E04890ED080ADF4890
:100F300080ED080A90ED000ADFEDDD0AB4EEE00A6C
:100F4000F1EE10FA02D29FEDDA0A0FE0D74890EDE9
:100F5000000ADFEDD80AB4EEE00AF1EE10FA02DD85
:100F60009FEDD40A02E0D14890ED000ACF4880ED11
:100F7000000A90ED010ADFEDCE0AB4EEE00AF1EED0
:100F800010FA02D29FEDCA0A0FE0C84890ED010A9C
:100F9000DFEDC80AB4EEE00AF1EE10FA02DD9FEDD3
:100FA000C50A02E0C14890ED010AC04880ED010A7F
:100FB00090ED020ADFEDBE0AB4EEE00AF1EE10FA9F
:100FC00002D29FEDBB0A0FE0B84890ED020ADFEDB8
:100FD000B90AB4EEE00AF1EE10FA02DD9FEDB50AAF
:100FE00002E0B24890ED020AB04880ED020A90EDAE
:100FF000000AD0ED0C0A30EE200AD0ED060A30EEE1
:10100000200AD0ED150A20EE200A80ED120A90ED9C
:10101000010AD0ED0D0A30EE200AD0ED070A30EEBD
:10102000200AD0ED190A20EE200A80ED130A90ED77
:10103000020AD0ED0E0A30EE200AD0ED080A30EE9A
:10104000200AD0ED1D0A20EE200A80ED140A90ED52
:10105000000A80ED030A90ED010A80ED040A90ED8C
:10106000020A80ED050ABDEC0E8B10BD8AB0DFEDE3
:10107000921AB4EEE11AF1EE10FA02D2DFED8E1AF6
:101080000BE0DFED8E1AB4EEE11AF1EE10FA02DD9C
:10109000DFED8A1A01E0F0EE411AB0EE611AF1EECE
:1010A000401A71EEA01A71EE811ACDED041A70EE9D
:1010B000201A71EEC11ACDED051A70EE601A71EEAC
:1010C000811ACDED061AF1EE401A71EEE01A71EEBA
:1010D000C11ACDED071A002029E004A901EB800117
:1010E000D1ED001A9FED762AF4EEC21AF1EE10FA55
:1010F00002D2DFED731A13E004A901EB8001D1EDF8
:10110000001A9FED702AF4EEC21AF1EE10FA02DD19
:10111000DFED6C1A04E004A901EB8001D1ED001AA7
:1011200004A901EB8001C1ED001A411CC8B20428DA
:10113000D3DBDDED041AF5EEC01AF1EE10FA02DD94
:10114000DDED041A03E0DDED041AF1EE611A9FED06
:101150005E2A21EE822ADFED5B2AC2EE221A9FED83
:101160005B2A71EE821A9DED042A61EE821ACDEDA2
:10117000001ADDED051AF5EEC01AF1EE10FA02DDE7
:10118000DDED051A03E0DDED051AF1EE611A9FEDC4
:101190004E2A61EE821A9FED4B2AC1EE822ADFEDC4
:1011A0004B1A72EEA11A9DED052A61EE821ACDED61
:1011B000011ADDED061AF5EEC01AF1EE10FA02DDA5
:1011C000DDED061A03E0DDED061AF1EE611A9FED82
:1011D0003E2A21EE822ADFED3B2AC2EE221A9FED43
:1011E0003B2A71EE821A9DED062A61EE821ACDED40
:1011F000021ADDED071AF5EEC01AF1EE10FA02DD63
:10120000DDED071A03E0DDED071AF1EE611A9FED3F
:101210002E2A21EE822ADFED2B2AC2EE221A9FED22
:101220002B2A71EE821A9DED072A61EE821ACDED0E
:10123000031A9DED002A2649D1ED001A2549D1ED6A
:10124000002A42EE821A2449C1ED001A9DED012ABE
:101250001F49D1ED001A1F49D1ED002A42EE821A32
:101260001D49C1ED011A9DED022A1949D1ED001A5F
:101270001849D1ED002A42EE821A1749C1ED021A2F
:101280009DED032A1249D1ED001A1249D1ED002A31
:1012900042EE821A1049C1ED031A1049097821B1B2
:1012A0000F490978E1BB002047E076E0842900205F
:1012B0000000B4C20000B4420000C8C30000C8432C
:1012C00000007AC400007A446666E63ECDCC0C3F4E
:1012D0000800002010000020942A002000050020B3
:1012E0000C000020FE4901EB8001D1ED001A9FEDBA
:1012F000FD2AF4EEC21AF1EE10FA02D2DFEDF91A6D
:1013000014E0F74901EB8001D1ED001A1FED132A1B
:10131000F4EEC21AF1EE10FA03DD5FED161A05E0E5
:101320000EE0EF4901EB8001D1ED001AEC4901EB31
:101330008001C1ED001A411CC8B20428D2DB39E09B
:10134000002027E0E64901EB8001D1ED001AF5EE1F
:10135000C01AF1EE10FA02D2DFEDE31A13E0E04911
:1013600001EB8001D1ED001A1FED2A2AF4EEC21A1A
:10137000F1EE10FA02DD5FED2D1A04E0D84901EB21
:101380008001D1ED001AD64901EB8001C1ED001AB0
:10139000411CC8B20428D5DB0CE0002008E0DFEDDA
:1013A000D21ACF4901EB8001C1ED001A411CC8B22D
:1013B0000428F4DBCA49D1ED001AFDEEE11A11EE62
:1013C000901A09B2ADF82010C549D1ED011AFDEE11
:1013D000E11A11EE901A09B2ADF82210C049D1ED10
:1013E000021AFDEEE11A11EE901A09B2ADF82410BE
:1013F000BB49D1ED031AFDEEE11A11EE901A09B2C4
:10140000ADF826100AB0704710B52DED028BB0EE86
:10141000408AB64890ED020ADFEDB50A30EE200AA8
:10142000B44880ED000AD0ED000A1FED5C1A80EE92
:10143000810AB148D0ED000A70EE600A9FEDAF0A54
:1014400028EE001A90ED000A01EE200A80ED000A55
:1014500090ED000AB5EEC00AF1EE10FA02D29FED4F
:10146000A20A0FE0A44890ED000AF7EE000AB4EEDD
:10147000E00AF1EE10FA02DDB7EE000A02E09E4843
:1014800090ED000A9E4880ED000A9A4890ED000A0F
:10149000DFED9C0AB4EEE00AF1EE10FA03D201206F
:1014A0009949087002E00020974908709148D0EDF2
:1014B000000AB0EE480A04F08EFC914890ED000A54
:1014C0009248D0ED000A20EE200A914880ED000AF3
:1014D00090ED000AB5EEC00AF1EE10FA02D29FEDCF
:1014E000820A0FE08A4890ED000ADFED8A0AB4EE26
:1014F000E00AF1EE10FA02DD9FED860A02E0844870
:1015000090ED000A824880ED000ABDEC028B10BD10
:1015100000B52DED028B83B0B0EE408A7E4890ED91
:10152000120AF3EE0E0A80EE201A9FED7C0A21EEDD
:10153000000A8DED000AD0ED130AB3EE0E1A80EE0C
:10154000810ADFED760A20EE200A8DED010A90ED8A
:10155000140AF3EE0E0A80EE201A9FED700A21EEB7
:10156000000A8DED020A9DED000A6D4880ED000A2B
:101570009DED010A80ED010A9DED020A80ED020A4F
:1015800090ED000ADFED670AB4EEE00AF1EE10FA22
:1015900002D29FED640A0FE0614890ED000ADFED92
:1015A0005F0AB4EEE00AF1EE10FA02DD9FED5B0A8D
:1015B00002E05B4890ED000A594880ED000A90ED8A
:1015C000010ADFED580AB4EEE00AF1EE10FA02D299
:1015D0009FED540A0FE0524890ED010ADFED4F0AEB
:1015E000B4EEE00AF1EE10FA02DD9FED4C0A02E0E3
:1015F0004B4890ED010A4A4880ED010A90ED020A3D
:10160000DFED480AB4EEE00AF1EE10FA02D29FEDE7
:10161000450A0FE0424890ED020ADFED400AB4EEC1
:10162000E00AF1EE10FA02DD9FED3C0A02E03C48D0
:1016300090ED020A3A4880ED020ADFED3B0A80EEA7
:10164000880A3A48D0ED0A0A394890ED001A70EE3F
:10165000C10A20EE200A374880ED0F0ADFED320A7A
:1016600080EE880A3148D0ED0B0AF1EE600A30486E
:1016700090ED011A70EEC10A20EE200A2D4880ED8F
:10168000100ADFED290A80EE880A2848D0ED0C0AFE
:10169000F1EE600A264890ED021A70EEC10A20EEC3
:1016A000200A244880ED110A1D4890ED000A1F48C9
:1016B000D0ED0A0A30EE600AF7EE000A20EE200AAA
:1016C0001C4880ED000A164890ED010A1748D0ED3D
:1016D0000B0A30EE200AF7EE000A20EE200A2BE07B
:1016E000942A00200000484300000000F02B002056
:1016F0000000FA43680000206C0000203433FB41F6
:10170000100000200000C8420C0000202C05002022
:10171000080000200000484484290020000096436F
:101720006C2A0020000096C36F12033B9C330020FC
:10173000782A0020C0280020FE4880ED010AFE48DB
:1017400090ED020AFD48D0ED0C0A30EE200AF7EECB
:10175000000A20EE200AF74880ED020A90ED000A08
:10176000B5EEC00AF1EE10FA02DD90ED000A04E0D9
:10177000F04890ED000AB1EE400A5FED180A80EEE5
:10178000201AEC4880ED2D1A90ED010AB5EEC00A42
:10179000F1EE10FA02DD90ED010A04E0E54890ED6B
:1017A000010AB1EE400A5FED230A80EE201AE148FB
:1017B00080ED2E1A90ED020AB5EEC00AF1EE10FA95
:1017C00002DD90ED020A04E0DA4890ED020AB1EE83
:1017D000400ADFEDDB0A80EE201AD64880ED2F1A92
:1017E0005FED2F0A80EE880AD0ED160A90ED0F1AF1
:1017F000FAEE041A21EE211A60EE810A20EE200A88
:1018000080ED0C0A5FED380A80EE880AD0ED1A0AE6
:1018100090ED101AFAEE041A21EE211A60EE810AF8
:1018200020EE200A80ED0D0A5FED410A80EE880A65
:10183000D0ED1E0A90ED111AFAEE041A21EE211ACB
:1018400060EE810A20EE200A80ED0E0A90ED000A7B
:10185000D0ED0F0A30EE600AD0ED170A60EE200AD4
:1018600090ED060A00EE880A80ED060A90ED010A66
:10187000D0ED100A30EE600AD0ED1B0A60EE200AAF
:1018800090ED070A00EE880A80ED070A90ED020A43
:10189000D0ED110A30EE600AD0ED1F0A60EE200A8A
:1018A00090ED080A00EE880A80ED080AA54890ED40
:1018B000000AF6EE000A20EE200A5FED680A20EE2C
:1018C000200A9C4880ED090A9E4890ED000AF6EE39
:1018D000000A20EE200A5FED6F0A20EE200A9548EC
:1018E00080ED0A0A974890ED000AF6EE000A20EE15
:1018F000200A5FED760A20EE200A8E4880ED0B0A62
:1019000090ED060AD0ED090AF1EE600AB4EEE00AA5
:10191000F1EE10FA04D290ED090AB1EE400A0FE0A0
:10192000844890ED060AD0ED090AB4EEE00AF1EE23
:1019300010FA02DD90ED090A02E07E4890ED060AF9
:101940007C4880ED060A90ED070AD0ED0A0AF1EE18
:10195000600AB4EEE00AF1EE10FA04D290ED0A0A41
:10196000B1EE400A0FE0734890ED070AD0ED0A0A85
:10197000B4EEE00AF1EE10FA02DD90ED0A0A02E0A0
:101980006C4890ED070A6B4880ED070A90ED080A55
:10199000D0ED0B0AF1EE600AB4EEE00AF1EE10FAB7
:1019A00004D290ED0B0AB1EE400A0FE0614890EDD1
:1019B000080AD0ED0B0AB4EEE00AF1EE10FA02DDEF
:1019C00090ED0B0A02E05B4890ED080A594880ED63
:1019D000080A90ED300AF7EE000A30EEC00AD0EDAA
:1019E000150A20EE200AD0ED000A90ED0C1A70EED8
:1019F000810A90ED061A70EE810A60EE200A90EDE1
:101A0000301A5148D0ED2D1A9FED500A9FED502A03
:101A100002EE210AB5EEC00AF1EE10FA02D21FED75
:101A2000CE0A1BE04848D0ED2D1A9FED480A9FEDE5
:101A3000482A02EE210AF7EE001AB4EEE10AF1EEAE
:101A400010FA02DDB7EE000A08E03F48D0ED2D1A8B
:101A50009FED3E0A9FED3E2A02EE210A21EE000A8A
:101A6000354890ED001A40EE010AB0EE080A20EE6B
:101A7000800A304880ED120A90ED300AF7EE000A35
:101A800030EEC00AD0ED190A20EE200AD0ED010A8E
:101A900090ED0D1A70EE810A90ED071A70EE810A32
:101AA00060EE200A90ED301A2748D0ED2E1A9FEDF7
:101AB000270A9FED272A02EE210AB5EEC00AF1EEB1
:101AC00010FA02D21FEDF80A1BE01F48D0ED2E1AC3
:101AD0009FED1E0A9FED1E2A02EE210AF7EE001A64
:101AE000B4EEE10AF1EE10FA02DDB7EE000A08E00A
:101AF0001548D0ED2E1A9FED150A9FED152A02EE1E
:101B0000210A21EE000A0C4890ED011A40EE010A6C
:101B1000B0EE080A20EE800A064880ED130A90ED28
:101B2000300AF7EE000A30EEC00AD0ED1D0A20EEB2
:101B3000200A0FE0C02800206C2A00209C330020DF
:101B40000000164310000020842900206666E63E4F
:101B5000CDCC0C3FD0ED020A90ED0E1A70EE810A4A
:101B600090ED081A70EE810A60EE200A90ED301AAE
:101B7000CC48D0ED2F1A1FED0B0A1FED0B2A02EEF9
:101B8000210AB5EEC00AF1EE10FA02D29FEDC60AA4
:101B90001BE0C448D0ED2F1A1FED140A1FED142AC4
:101BA00002EE210AF7EE001AB4EEE10AF1EE10FAA5
:101BB00002DDB7EE000A08E0BA48D0ED2F1A1FED9B
:101BC0001D0A1FED1D2A02EE210A21EE000AB74868
:101BD00090ED021A40EE010AB0EE080A20EE800AEB
:101BE000B34880ED140AB0EE480AFFF70DFCB04888
:101BF000D0ED141AB0EE611AD0ED131AF0EE610AAE
:101C0000D0ED121AB0EE610AFFF730FAA84890ED55
:101C1000000A80ED030A90ED010A80ED040A90EDC0
:101C2000020A80ED050AA34890ED0A0AA24880ED59
:101C3000000AA04890ED0B0AB1EE400A9E4880EDE4
:101C4000010A9C4890ED0C0AB1EE400A9A4880EDDA
:101C5000020A03B0BDEC028B00BD10B52DED048B64
:101C600096480088401C954908809548008948B1ED
:101C700093480089C0F5BE60142190FBF1F09149B2
:101C8000086002E000208F4908608D488089D0B14B
:101C90008B488089C0F5BE600A2190FBF1F00028D6
:101CA00006DD87488089C0F5BE6090FBF1F007E053
:101CB00083488089C0F5BE600A2190FBF1F0404264
:101CC0008149086002E000207F4908607C48C089A3
:101CD00050B17B49C989C1F5BE60C11700EB1171D4
:101CE00009117A4A116002E00020784908607448BE
:101CF000408970B172484089A0F58C60142190FB36
:101D0000F1F0C0F13204204612F00FFC704A03C219
:101D100004E09FED700B6E4880ED000B9FED6F0BA4
:101D200053EC102B6A4890ED000B51EC100B12F0A5
:101D30002DFC04D29FED690B654880ED000B6948CE
:101D4000008862490988401A674908806748008806
:101D50005E490988401A6649088059484089B0F5AB
:101D60008C6F08DA60480088624908806048008803
:101D70006149088034E09FED610B53EC102B54480F
:101D800090ED000B51EC100B12F060FB41EC180BC6
:101D90004A48008812F0DAFB41EC190B53EC182B7F
:101DA00012F0F4FB0ED250480088564909880844C6
:101DB000504908804E48008852490988401A4E49C7
:101DC00008800DE0484800884F490988401A494971
:101DD0000880474800884C490988084446490880DB
:101DE0004A480088D22802DDD22048490880474866
:101DF00000885A2802DA5A20444908803D48008861
:101E0000D22802DDD2203B4908803A4800885A286F
:101E100002DA5A203749088037480088D22802DD84
:101E2000D22035490880344800885A2802DA5A20DE
:101E3000314908802F480088C0F5967134480BF06E
:101E4000A5FB2D480088C0F5967131480BF0BCFB0E
:101E500030480088C0F596701B4A1268811A2C48D9
:101E60000BF070FB2C480088C0F59670164A12687B
:101E7000811827480BF01FFB1048008812F066FB02
:101E800041EC180B124890ED000B53EC102B51EC69
:101E9000180B12F093FB02D8002008490880BDEC13
:101EA000048B10BD84290020000000006C2A002053
:101EB000C02800209C330020782A00201400002035
:101EC0008C33002044000020480000204000002007
:101ED000500000200000000000003440000000001E
:101EE00000002440260000201C00002028000020C4
:101EF0001E00002016000020180000200000000036
:101F0000000000402E0000202C0000201A000020BD
:101F100000040040220000202400002070B52DEDB8
:101F2000108BB0EE408AB0EE60EAF0EE41EAB0EE1F
:101F300061FAF0EE429AB0EE629AF0EE438A0446FD
:101F40000D4616469FEDFB0A28EE000AF3EE040A42
:101F500020EE200AF0EE40AAF748D0ED080A60EE25
:101F6000A00A90ED091AD0ED091A41EE210A90ED70
:101F70000A1AD0ED0A1A41EE210AB0EE600A00F00A
:101F800006FDEE4880ED000A90ED000AB5EEC00AAD
:101F9000F1EE10FA38D0E84890ED080AE748D0EDA5
:101FA000000A80EE201AE64890ED000A71EE400A21
:101FB00090ED000A0AEEA00A80ED000ADE4890EDDE
:101FC000090ADE48D0ED000A80EE201ADC4890EDC8
:101FD000010A71EE400A90ED010A0AEEA00A80EDB6
:101FE000010AD548D0ED0A0AD44890ED001A80EED7
:101FF000810AD348D0ED020A70EE600A90ED020A21
:102000000AEEA00A80ED020ACE4ACD49CE4803F07E
:1020100088F9CC48D0ED000A60EEA00A90ED011AD4
:10202000D0ED011A41EE210AB0EE600A00F0AFFCDB
:10203000C64880ED000AC34890ED000AB5EEC00A1C
:10204000F1EE10FA36D090ED010AB5EEC00AF1EECD
:1020500010FA2FD090ED020AB5EEC00AF1EE10FA98
:1020600028D0BA4890ED000AB5EEC00AF1EE10FA99
:1020700020D0B44890ED000AB448D0ED000A80EEBC
:10208000201AB0EE41BAAF4890ED010AAF48D0ED4A
:10209000000A80EE201AF0EE41BAF0EE4B0AB0EEE4
:1020A0006B0A00F0B4FBDFEDAA0A20EE200AA94873
:1020B00080ED000AA84890ED010AD0ED030A20EE59
:1020C000200AD0ED000A90ED021A00EEC10AF0EEEF
:1020D000000A20EE200A9C4880ED000A9E4890ED00
:1020E000000AD0ED010A20EE200AD0ED020A90EDA0
:1020F000031A00EE810AF0EE000A20EE200A924850
:1021000080ED010A944890ED010A20EE000AD0ED1E
:10211000020A90ED021A00EE810AF7EE000AB0EE14
:10212000001A41EE400A8848C0ED020A69EEA90A89
:1021300049EE090A48EEA80AB0EE600A00F027FC52
:10214000864880ED000A9FED7B0A28EE000AF2EE39
:10215000040A60EE200A90ED000A814890ED001A12
:1021600030EE411A90ED000A00EE810A80ED000A7F
:10217000F5EEC09AF1EE10FA02DDB0EE690A01E068
:10218000B1EE690ADFED770AB4EEE00AF1EE10FA7B
:102190007DD2B5EEC09AF1EE10FA02DDB0EE490A3A
:1021A00001E0B1EE490ADFED6F0AB4EEE00AF1EEAC
:1021B00010FA78D2F5EEC08AF1EE10FA02DDB0EE38
:1021C000680A01E0B1EE680ADFED660AB4EEE00AE3
:1021D000F1EE10FA67D2614890ED000AC9EE800A6C
:1021E000F0EE609A90ED000AC9EE000AB0EE609A37
:1021F00090ED000AC8EE800AF0EE608A90ED000AC9
:10220000DFED590AB4EEE00AF1EE10FA54DD90ED7C
:10221000000ADFED540AB4EEE00AF1EE10FA4BD2F8
:10222000494890ED020A20EE090AD0ED010A08EEB5
:10223000E00A4E4880ED030A434890ED000A20EE84
:10224000280AD0ED020A09EEE00A484880ED040AA7
:102250009FED380A28EE000AF7EE000A20EE20AAC9
:1022600090ED030AD0ED060A70EE600A90ED060AC2
:102270000AEE200A80ED060A90ED040AD0ED070A66
:1022800070EE600A90ED070A0AEE200A00E00AE00C
:1022900080ED070A90ED060A80ED000A90ED070A2E
:1022A00080ED010A08E09FED320A304880ED000A17
:1022B0009FED2F0A80ED010A2C4890ED090AD0ED20
:1022C000000A9FED2C1A60EE810AB0EE001A60EE53
:1022D000810A00EE880A80ED090A90ED0A0AD0ED25
:1022E000010A9FED241A60EE810AB0EE001A60EE3A
:1022F000810A00EE880A80ED0A0A90ED0B0AD0ED03
:10230000020A9FED1C1A60EE810AB0EE001A60EE20
:10231000810A00EE880A80ED0B0A90ED090ADFEDD4
:10232000160AB4EEE00AF1EE10FA27D29FED120A77
:1023300034E00000C3F5C840E00500209C00002008
:102340002C2B0020202B0020D82A002098000020D1
:1023500033336542A40000207C0000208C00002064
:10236000940000200080894500806D45E42A00200B
:1023700000000000CDCCCC3D34FA0EBDFE4890EDFF
:10238000090ADFEDFE0AB4EEE00AF1EE10FA02DD12
:102390009FEDFA0A02E0F84890ED090AF64880ED50
:1023A000090A90ED0A0A5FED0C0AB4EEE00AF1EEBC
:1023B00010FA02D21FED100A0FE0EF4890ED0A0A62
:1023C000DFEDEE0AB4EEE00AF1EE10FA02DD9FED69
:1023D000EB0A02E0E84890ED0A0AE74880ED0A0AB5
:1023E00090ED0B0A5FED1C0AB4EEE00AF1EE10FA74
:1023F00002D21FED1F0A0FE0DF4890ED0B0ADFED60
:10240000DF0AB4EEE00AF1EE10FA02DD9FEDDB0A1E
:1024100002E0D94890ED0B0AD74880ED0B0AD84866
:1024200090ED020AB5EEC00AF1EE10FA29DDD548AA
:10243000007898B1D448D0ED000AD44890ED001A45
:1024400070EEC10AB0EE600A00F03CFCDFEDD00A8D
:1024500020EE200ACF4880ED000A12E0CA48D0EDF5
:10246000000ACA4890ED001A70EEC10AB0EE600A88
:1024700000F028FCDFEDC80A20EE200AC54880EDF8
:10248000000ABD4890ED000AD0ED090A30EE200A9E
:10249000DFEDC20A20EE200AB94890ED001ABD48CF
:1024A000D0ED001AF0EE4E0A41EE610A9FEDBC1A23
:1024B00000EE810AB04880ED0C0A90ED010AD0EDE3
:1024C0000A0A30EE200ADFEDB50A20EE200AAC48F9
:1024D00090ED011AAF48D0ED001AF0EE6E0A41EE11
:1024E000610A9FEDAF1A00EE810AA34880ED0D0A44
:1024F000A348D0ED020AA74890ED001AB0EE4F0AAB
:1025000000EEC10ADFEDA60A20EE200A9A4880ED0F
:102510000E0AA44890ED010AB1EE400A9648D0EDAB
:102520000C0A20EE200A9F48D0ED020A924890ED56
:102530000D1A00EEC10A9B48D0ED030A8E4890EDBB
:102540000E1A00EEC10A9748D0ED000A40EE080AC4
:10255000C0ED000A90ED000A8748D0ED0C0A20EE8D
:10256000200A9048D0ED020A834890ED0E1A00EE42
:10257000810A8C48D0ED030A7F4890ED0D1A00EED9
:10258000C10A8848D0ED010A40EE080AC0ED010AF0
:1025900090ED000A7848D0ED0D0A20EE200A81481F
:1025A000D0ED010A744890ED0E1A00EEC10A7D4884
:1025B000D0ED030A704890ED0C1A00EE810A7948BC
:1025C000D0ED020A40EE080AC0ED020A90ED000AC2
:1025D0006948D0ED0E0A20EE200A7248D0ED010ABB
:1025E000654890ED0D1A00EE810A6E48D0ED020AA2
:1025F000614890ED0C1A00EEC10A6A48D0ED030A5A
:1026000040EE080AC0ED030AD0ED000A60EEA00A11
:1026100090ED011AD0ED011A41EE210A90ED021A57
:10262000D0ED021A41EE210A90ED031AD0ED031A03
:1026300041EE210AB0EE600A00F0A9F95A4880ED97
:10264000000A584890ED000A5748D0ED000A80EE85
:10265000201A544880ED001A90ED010A5248D0ED3E
:10266000000A80EE201A4F4880ED011A90ED020A10
:102670004D48D0ED000A80EE201A4A4880ED021A3B
:1026800090ED030A4848D0ED000A80EE201A454834
:1026900080ED031A90ED011A21EE011AD0ED021A15
:1026A00090ED022A01EE821AF7EE001AB0EE002A2F
:1026B00042EE411AF0EE610A90ED001AD0ED011AD7
:1026C00021EE211AD0ED021A90ED032A01EE821AB2
:1026D000F0EE001A21EE211AB0EE410A00F097F850
:1026E0005FEDE50A20EE200A84ED000A2D4890ED0A
:1026F000010AD0ED030A20EE200AD0ED000A90ED89
:10270000021A00EEC10AF0EE000A20EE200A10EED6
:10271000101A084611F027FF41EC1D0BB0EE4D0AD0
:10272000F0EE6D0A12F0ECF8B0EE40CAF0EE60CABE
:102730009FED1E0B53EC102B51EC1C0B11F014FEF3
:1027400041EC1B0B11F052FF2860164890ED001A67
:1027500021EE011AD0ED011A90ED012A01EE821A44
:10276000F7EE001AB0EE002A52EE011AF0EE610AFE
:1027700090ED011A1EE00000E42A002034FA0E3D1C
:10278000D82A002000050020A400002078000020A6
:1027900090C2F53DA00000206766663F9A99193FF8
:1027A00034FA8E3C7C000020900000200000006085
:1027B00066A64C40B1EE411AD0ED021A21EE211A64
:1027C000D0ED001A90ED032A01EEC21AF0EE001AC5
:1027D00021EE211AB0EE410A00F019F8DFED040AEB
:1027E00020EE200A86ED000ABDEC108B70BD0000C3
:1027F00033336542F0EE400AF5EEC00AF1EE10FA0E
:1028000002DBB0EE600A7047B1EE600AFBE700B58C
:10281000B0EE403AB0EE602AB5EEC03AF1EE10FAF2
:1028200007D1B5EEC02AF1EE10FA02D19FEDFD1AE4
:1028300099E0B0EE430AFFF7DDFFF0EE403AB0EE6C
:10284000420AFFF7D7FFF0EE402AF4EEE23AF1EE4B
:1028500010FA02D283EEA24A01E082EEA34A9FED73
:10286000F20AB4EEC04AF1EE10FA02D2F0EE441AC7
:102870002DE0DFEDEE0AB6EE000A14EE200AF0EECF
:10288000404ABDEEE40A10EE100A00EE100AB8EE5F
:10289000C00A34EEC00AF0EE404AE54901EB80017F
:1028A00091ED000AF0EE401AE14A411C02EB810171
:1028B00091ED000A114601EB8001D1ED000A70EEA6
:1028C000600AB0EE610A00EEA40AF0EE401AF4EEDF
:1028D000E32AF1EE10FA20DDB5EEC02AF1EE10FA8F
:1028E0000ADBB5EEC03AF1EE10FA02DBB0EE611A87
:1028F00039E0B1EE611A36E09FEDCE1AB5EEC03A7E
:10290000F1EE10FA04DB31EE610AB0EE401A2AE073
:1029100031EEC10AB0EE401A25E0B5EEC03AF1EE54
:1029200010FA10DB9FEDC41AB5EEC02AF1EE10FAD2
:1029300004DB31EE610AB0EE401A14E031EE210AF8
:10294000B0EE401A0FE09FEDBD1AB5EEC02AF1EED1
:1029500010FA04DB31EE210AB0EE401A03E031EE4A
:10296000610AB0EE401AB0EE410A00BD00B5B0EE0B
:10297000405AF0EE605AF0EE450AB0EE650AFFF7F5
:1029800046FF00BDF0EE400A20EEA00A7047B0EE10
:10299000401AB7EE080AB0EE402AB6EE000A21EE61
:1029A000000AF0EE401AF0EE410A10EE900AA44937
:1029B000A1EB600000EE900A61EEA02AB7EE080AD3
:1029C00002EEE00A20EE200AF0EE400A61EEA02AB4
:1029D000B7EE080A02EEE00A20EE200AF0EE400A06
:1029E00021EE200A704710B52DED0A8BB0EE409A0B
:1029F000F0EE609A9FED930B53EC102B51EC190BFA
:102A000011F0C4FD18D29FED910B53EC102B51EC3B
:102A1000190B11F0A9FC41EC1B0B9FED8E0B53EC35
:102A2000102B11F0FAFB41EC1A0B53EC192B11F09F
:102A30009BFC41EC180B17E09FED840B53EC102B23
:102A400051EC190B11F090FC41EC1B0B9FED810B2D
:102A500053EC102B11F085FC41EC1A0B53EC192BA5
:102A600011F082FC41EC180B9FED760B53EC102B10
:102A700051EC180B11F08AFD20D29FED780B53EC2E
:102A8000102B51EC180B11F0C8FB41EC1C0B9FED07
:102A9000750B53EC102B11F067FC41EC1B0B9FEDF9
:102AA0006F0B53EC102B11F0B8FB41EC1A0B53ECED
:102AB000182B11F059FC41EC180B1FE09FED670B30
:102AC00053EC102B51EC180B11F048FC41EC1C0B93
:102AD0009FED660B53EC102B11F046FC41EC1B0BE9
:102AE0009FED5E0B53EC102B11F097FB41EC1A0B92
:102AF00053EC182B11F038FC41EC180BB0EE480ADF
:102B0000F0EE680ABDEC0A8B10BD10B52DED068BFA
:102B1000B0EE408AF0EE608A01249FED560B53EC34
:102B2000102B51EC180B11F049FD0AD89FED510BF9
:102B300053EC102B51EC180B11F010FC41EC180B5E
:102B4000A41E204611F0F1FC41EC190BB0EE480A2E
:102B5000F0EE680AFFF747FFB0EE40AAF0EE60AA79
:102B600053EC192B51EC1A0B11F0FEFB41EC100B3E
:102B7000BDEC068B10BD10B52DED088BB0EE408A74
:102B8000F0EE608A01249FED3D0B53EC102B51ECCD
:102B9000180B11F042FB41EC180B9FED360B53EC78
:102BA000102B51EC180B11F009FD0AD8A41E9FED53
:102BB000310B53EC102B51EC180B11F0CFFB41EC07
:102BC000180B204611F0B1FC41EC1A0BB0EE480A8C
:102BD000F0EE680AFFF799FFB0EE40BAF0EE60BA87
:102BE00053EC1A2B51EC1B0B11F0BEFB41EC190BF3
:102BF00011F0FCFC00EE100ABDEC088B10BDB0EE2D
:102C0000401AB5EEC01AF1EE10FA3BDD31EE600A63
:102C1000B5EEC00AF1EE10FA3FD2DFED021AB0EEC7
:102C2000610A3AE0000000008180803B00008043A0
:102C3000A8000020DB0F4940DB0FC93FDB0FC9BFF5
:102C4000DF59375F00000000000000000000006056
:102C50002FF0D93F00000060305FF43F000000001B
:102C60000000F03F000000C0CCCCCCBF000000C092
:102C7000CCCCCC3FF1D4C853FB210940F1D4C8538C
:102C8000FB21F93F31EE200AB5EEC00AF1EE10FA51
:102C900003DD5FED1C1AB0EE610A7047B0EE401A1A
:102CA000F1EE601AB4EEE11AF1EE10FA07DDB4EEBF
:102CB000E01AF1EE10FA02D21FED260A01E0B0EEA2
:102CC000410A7047F0EE400A9FED210AF4EEC00A77
:102CD000F1EE10FA04DD9FED1F0A30EEC00A7047D6
:102CE0009FED1D0AF4EEC00AF1EE10FA04D29FED3A
:102CF000190A30EE800AF2E7B0EE600AEFE7F0EE74
:102D0000401AB7EE000AF4EEC00AF1EE10FA04DC45
:102D1000F5EEC00AF1EE10FA02D21FED3E0A70473E
:102D200081EE810AB5EEC00AF1EE10FA02DD81EE05
:102D3000810A03E081EE810AB1EE400A20EE202AEA
:102D4000B7EE000A30EE600A02EE210AE7E7000063
:102D5000000034430000B443000034C370B505469E
:102D60000C462146FE4802F008F92146FC4805F0D1
:102D70004EFC70BD70B504460D46AA20F849087097
:102D80004870EF2088700220C870084604714571B1
:102D90000026002005E0F249095C3144CEB2411C16
:102DA000C8B20628F7DBEE4886710721FFF7D6FF89
:102DB00070BD2DE9F0432DED028B83B005460E4624
:102DC00017469846B0EE408A0024AA222146641C89
:102DD000E34842542146641C425404222146641CA8
:102DE000425400222146641C42542146641C45542E
:102DF0002146641C465401979DF807202146641C17
:102E000042549DF806202046611CCCB2D4490A5495
:102E10009DF805202046611CCCB2D1490A549DF88A
:102E200004202046611CCCB2CD490A54CDF8048060
:102E30009DF807202046611CCCB2C9490A549DF870
:102E400006202046611CCCB2C5490A549DF80520D5
:102E50002046611CCCB2C2490A549DF80420204689
:102E6000611CCCB2BE490A549FEDBE0A28EE000A8E
:102E7000BDEEC00A10EE100A00B202909DF80920C3
:102E80002046611CCCB2B6490A549DF80820204661
:102E9000611CCCB2B2490A54201FC8704FF000091F
:102EA000002006E0AE49095C494401F0FF09411CDD
:102EB000C8B2A042F6DB2046611CCCB2A84901F89A
:102EC00000902146A648FFF749FF03B0BDEC028BF6
:102ED000BDE8F08370B52DED0A8B82B00546B0EEEB
:102EE000408AF0EE608AB0EE419AF0EE619AB0EE60
:102EF00042AAF0EE62AAB0EE43BAF0EE63BAB0EEC8
:102F000044CA0024AA222146641C95484254214602
:102F1000641C425405F10F00C2B22146641C904863
:102F2000425400222146641C42549FED8F0A28EE31
:102F3000000ABDEEC00A10EE100A00B201909DF822
:102F400005202146641C864842549DF804202146F1
:102F5000641C42549FED840A28EE800ABDEEC00A2C
:102F600010EE100A00B201909DF805202146641C65
:102F70007B4842549DF804202046611CCCB278491D
:102F80000A549FED790A29EE000ABDEEC00A10EE40
:102F9000100A00B201909DF805202046611CCCB2B9
:102FA0006F490A549DF804202046611CCCB26C493C
:102FB0000A549FED6D0A29EE800ABDEEC00A10EE9C
:102FC000100A00B201909DF805202046611CCCB289
:102FD00063490A549DF804202046611CCCB2604924
:102FE0000A549FED610A2AEE000ABDEEC00A10EEF7
:102FF000100A00B201909DF805202046611CCCB259
:1030000057490A549DF804202046611CCCB254490B
:103010000A549FED550A2AEE800ABDEEC00A10EE52
:10302000100A00B201909DF805202046611CCCB228
:103030004B490A549DF804202046611CCCB24849F3
:103040000A549FED490A2BEE000ABDEEC00A10EEAD
:10305000100A00B201909DF805202046611CCCB2F8
:103060003F490A549DF804202046611CCCB23C49DB
:103070000A549FED3D0A2BEE800ABDEEC00A10EE09
:10308000100A00B201909DF805202046611CCCB2C8
:1030900033490A549DF804202046611CCCB23049C3
:1030A0000A549FED310A2CEE000ABDEEC00A10EE64
:1030B000100A00B201909DF805202046611CCCB298
:1030C00027490A549DF804202046611CCCB22449AB
:1030D0000A54201FC8700026002005E02049095C22
:1030E0003144CEB2411CC8B2A042F7DB2046611C7D
:1030F000CCB21B490E5421461948FFF72FFE02B0EF
:10310000BDEC0A8B70BDF8B505460E460024AA2218
:103110002146641C124842542146641C4254052234
:103120002146641C425400222146641C42540095EE
:103130009DF801202146641C42549DF80020214640
:10314000641C425400969DF801202146641C4254A0
:103150009DF800202146601CC4B20148425405E09D
:103160004A2B00200000C84200007A44201FFE497C
:10317000C8700027002005E0FB49095C3944CFB244
:10318000411CC8B2A042F7DB2046611CCCB2F64914
:103190000F542146F448FFF7E1FDF8BD7FB5002448
:1031A000AA222146641CF04842542146641C425421
:1031B00006222146641C425400222146641C4254CB
:1031C0009DF801202146641C42549DF800202146B0
:1031D000641C42549DF805202146641C42549DF80D
:1031E00004202046611CCCB2DF490A549DF8092016
:1031F0002046611CCCB2DC490A549DF808202046C8
:10320000611CCCB2D8490A549DF80D202046611C9F
:10321000CCB2D5490A549DF80C202146601CC4B29A
:10322000D14842549DF821202046611CCCB2CE49A1
:103230000A549DF820202046611CCCB2CA490A5489
:103240009DF825202046611CCCB2C7490A549DF840
:1032500024202046611CCCB2C3490A549DF8292081
:103260002046611CCCB2C0490A549DF82820204653
:10327000611CCCB2BC490A549DF82D202046611C2B
:10328000CCB2B9490A549DF82C202046611CCCB21E
:10329000B5490A54201FC8700025002005E0B24936
:1032A000095C2944CDB2411CC8B2A042F7DB2046DC
:1032B000611CCCB2AC490D542146AB48FFF74EFD22
:1032C0007FBD7FB50024AA222146641CA648425433
:1032D0002146641C425403222146641C42540022AD
:1032E0002146641C42549DF801202146641C42542E
:1032F0009DF800202146641C42549DF8052021467B
:10330000641C42549DF804202046611CCCB29649AE
:103310000A549DF809202046611CCCB292490A54F7
:103320009DF808202046611CCCB28F490A549DF8B4
:103330000D202046611CCCB28B490A549DF80C200C
:103340002046611CCCB288490A549DF821202046B1
:10335000611CCCB284490A549DF820202146601C8F
:10336000C4B2814842549DF825202046611CCCB24D
:103370007D490A549DF824202046611CCCB27A492C
:103380000A549DF829202046611CCCB276490A5483
:103390009DF828202046611CCCB273490A549DF840
:1033A0002D202046611CCCB26F490A549DF82C2078
:1033B0002046611CCCB26C490A549DF8312020464D
:1033C000611CCCB268490A549DF830202046611C2B
:1033D000CCB265490A549DF835202046611CCCB218
:1033E00061490A549DF834202046611CCCB25E49E4
:1033F0000A54201FC8700025002005E05A49095CC6
:103400002944CDB2411CC8B2A042F7DB2046611C62
:10341000CCB255490D5421465348FFF79FFC7FBD60
:1034200073B50024AA222146641C4F484254214609
:10343000641C425407222146641C42540022214647
:10344000641C42549DF803202146641C42549DF89C
:1034500002202146641C42549DF801202146641C30
:1034600042549DF800202046611CCCB23E490A54CB
:103470009DF805202046611CCCB23B490A549DF8BA
:1034800004202046611CCCB237490A54201FC87062
:103490000025002005E03449095C2944CDB2411CD7
:1034A000C8B2A042F7DB2046611CCCB22E490D54B5
:1034B00021462D48FFF752FC7CBD2DE9F84F05460B
:1034C0000E4617469846DDE90AAB0024AA2221469B
:1034D000641C254842542146641C42540222214661
:1034E000641C425400222146641C425400959DF8FD
:1034F00001202146641C42549DF800202146641C92
:10350000425400969DF801202146641C42549DF8C7
:1035100000202146601CC4B21348425400979DF815
:1035200001202046611CCCB20F490A549DF80020AE
:103530002046611CCCB20C490A54CDF800809DF89D
:1035400001202046611CCCB207490A549DF8002096
:103550002046611CCCB204490A54CDF800A09DF865
:1035600001202046611C01E04A2B0020CCB2FE491C
:103570000A549DF800202046611CCCB2FA490A5436
:10358000CDF800B09DF801202146601CC4B2F64879
:1035900042549DF800202146601CC4B2F2484254B7
:1035A0000C9800909DF801202046611CCCB2EE4999
:1035B0000A549DF800202046611CCCB2EA490A5406
:1035C0000D9800909DF801202046611CCCB2E64980
:1035D0000A549DF800202046611CCCB2E2490A54EE
:1035E0000E9800909DF801202046611CCCB2DE4967
:1035F0000A549DF800202046611CCCB2DA490A54D6
:10360000002000909DF801202046611CCCB2D649D4
:103610000A549DF800202046611CCCB2D2490A54BD
:10362000201FC8704FF00009002006E0CE49095C59
:10363000494401F0FF09411CC8B2A042F6DB204614
:10364000611CCCB2C84901F800902146C648FFF77A
:1036500085FBBDE8F88F38B50024AA222146641CFA
:10366000C14842542146641C4254F1222146641C44
:10367000425400222146641C4254BC4890ED000A8A
:10368000BDEEC00A10EE100A00B200909DF80120B5
:103690002146641CB44842549DF800202146641C15
:1036A0004254B34890ED000ABDEEC00A10EE100A75
:1036B00000B200909DF801202146641CAA484254A3
:1036C0009DF800202046611CCCB2A7490A54A848A6
:1036D00090ED000ABDEEC00A10EE100A00B2009094
:1036E0009DF801202046611CCCB29F490A549DF8E8
:1036F00000202046611CCCB29B490A549D4890EDA5
:10370000000ABDEEC00A10EE100A00B200909DF84B
:1037100001202046611CCCB293490A549DF8002038
:103720002046611CCCB290490A54934890ED000A9F
:10373000BDEEC00A10EE100A00B200909DF8012004
:103740002046611CCCB288490A549DF800202046CE
:10375000611CCCB284490A54201FC8700025002087
:1037600005E08149095C2944CDB2411CC8B2A042A0
:10377000F7DB2046611CCCB27B490D5421467A48C8
:10378000FFF7ECFA38BD30B52DED048B81B0B0EE0B
:10379000408AF0EE608AB0EE419A0024AA222146C7
:1037A000641C714842542146641C42540B22214639
:1037B000641C425400222146641C42549FED6F0A4F
:1037C00028EE000ABDEEC00A10EE100A00B200900A
:1037D0009DF801202146641C634842549DF8002056
:1037E0002146641C42549FED650A28EE800ABDEE16
:1037F000C00A10EE100A00B200909DF80120214688
:10380000641C594842549DF800202046611CCCB2EB
:1038100055490A549FED590A29EE000ABDEEC00A27
:1038200010EE100A00B200909DF801202046611CA5
:10383000CCB24D490A549DF800202046611CCCB200
:1038400049490A54201FC8700025002005E0464958
:10385000095C2944CDB2411CC8B2A042F7DB204626
:10386000611CCCB240490D5421463F48FFF776FA1F
:1038700001B0BDEC048B30BD2DE9F0412DED048B82
:1038800082B0B0EE408AF0EE608AB0EE419A054612
:103890000E46174600240095AA222146641C324891
:1038A00042542146641C425401222146641C425465
:1038B00000222146641C42549FED310A28EE000A82
:1038C000BDEEC00A10EE100A00B201909DF805206E
:1038D0002146641C244842549DF804202146641C5F
:1038E00042549FED270A28EE800ABDEEC00A10EE72
:1038F000100A00B201909DF805202146641C1A4868
:1039000042549DF804202046611CCCB216490A544A
:103910009FED1B0A29EE000ABDEEC00A10EE100A48
:1039200000B201909DF805202046611CCCB20E49E2
:103930000A549DF804202046611CCCB20A490A545E
:103940009DF803202046611CCCB207490A549DF81B
:1039500002202046611CCCB203490A549DF8012084
:103960002046611CCCB20DE04A2B002050050020FF
:10397000380500202805002048050020CDCCCC3D8E
:103980000000C842F7490A549DF800202146601CF7
:10399000C4B2F44842542046611CCCB2F1490E54E2
:1039A0002046611CCCB2EF490F54201FC8704FF065
:1039B0000008002006E0EB49095C414401F0FF08E3
:1039C000411CC8B2A042F6DB2046611CCCB2E549DE
:1039D00001F800802146E348FFF7C0F902B0BDECD2
:1039E000048BBDE8F0817FB505460024AA2221465C
:1039F000641CDC4842542146641C42540022214687
:103A0000641C42542146641C42542146641C4554A3
:103A10009DF805202146641C42549DF8042021464F
:103A2000641C42549DF809202046611CCCB2CD494B
:103A30000A549DF808202046611CCCB2C9490A549A
:103A40009DF80D202046611CCCB2C6490A549DF851
:103A50000C202046611CCCB2C2490A549DF821209A
:103A60002046611CCCB2BF490A549DF82020204654
:103A7000611CCCB2BB490A54201FC870002600202C
:103A800005E0B849095C3144CEB2411CC8B2A0423D
:103A9000F7DB2046611CCCB2B2490E542146B14836
:103AA000FFF75CF97FBD10B586B0AF480078AF492D
:103AB000097890FBF1F201FB1201AC480078401E3E
:103AC000814202D10120AA49C870A7480078A949BB
:103AD000097890FBF1F201FB1201A6480078401E24
:103AE000814202D10120A24908719F480078A24971
:103AF000097890FBF1F201FB12019F480078801ECB
:103B0000814202D101209A49C873974800789B49A5
:103B1000097890FBF1F201FB120198480078401EF1
:103B2000814202D10120924988708F4800789449DF
:103B3000097890FBF1F201FB120191480078401ED8
:103B4000814202D101208A49C872874800788D4994
:103B5000097890FBF1F201FB12018A480078801E7F
:103B6000814202D10120824948737F48007886490A
:103B7000097890FBF1F201FB120183480078801E66
:103B8000814202D101207A498873774800787F49C1
:103B9000097890FBF1F201FB12017C480078C01E0D
:103BA000814202D10120724908746F480078784937
:103BB000097890FBF1F201FB120175480078C01EF4
:103BC000814204D16A48407C401C69494874664877
:103BD0000078401CC0B264490870C82801DD00208C
:103BE00008706348007848B100206149087069484E
:103BF000017869480078FFF7BDF817E25C48407823
:103C000060B100205A4948704FF4C87364224FF4E1
:103C1000967100900420FFF7E6FE07E25448807892
:103C2000E0B10020524988705C4991ED000A5FEDD7
:103C3000AD0A20EE200ABDEEC00A10EE100A584967
:103C40000A780021574B93ED001A574BD3ED000A29
:103C5000564B93ED000AFFF70FFEE7E14448007C66
:103C600060B1002042490874514890ED001ADFED20
:103C7000510A9FED500AFFF786FDD7E13C48C07B13
:103C800028B100203A49C873FFF7E5FCCEE1384877
:103C9000C078E8B300203649C870474890ED0A0A5A
:103CA000BDEEC00A10EE100A00B2434991ED090AB8
:103CB000BDEEC00A10EE101A0AB23F4991ED080A93
:103CC000BDEEC00A10EE101A09B23C4B93ED090A82
:103CD000BDEEC00A10EE103A1BB2CDE90131CDE9BC
:103CE0000320364890ED080ABDEEC00A10EE100A17
:103CF00000B2324C009094ED070ABDEEC00A10EEFF
:103D0000104A23B22D4C94ED060ABDEEC00A00E025
:103D100015E010EE104A22B2284C94ED050ABDEED3
:103D2000C00A10EE104A21B2244C94ED040ABDEEF4
:103D3000C00A10EE104A20B2FFF7BFFB76E10C4834
:103D4000007970B100200A4908711D4800880A21D5
:103D500090FBF1F084B221461A480068FFF760FB3F
:103D600064E131E04A2B0020B0040020B1040020BF
:103D7000382B0020B2040020B3040020B40400203B
:103D8000B5040020B6040020B7040020B8040020C9
:103D9000B9040020AD040020AC0400204805002038
:103DA0000005002078000020740000207000002032
:103DB0003805002000000000E00500209C330020B2
:103DC0009C06002038060020FE48C07AA8B30020D8
:103DD000FC49C87240F2DC52FB48C08900F2DC505A
:103DE00080B2F949898901F2DC5189B2CDE9030237
:103DF000F54805920291408900F2DC5080B2F24908
:103E0000098901F2DC5189B2EF4CCDE900106488D8
:103E100004F2DC54A3B2EC4C248804F2DC54A2B2C9
:103E2000E94CE48804F2DC54A1B2E74CA48804F223
:103E3000DC54A0B2FFF745FAF8E0FFE7E148407B29
:103E400048B30020DF494873009001900290DF4C96
:103E5000039094ED030ABCEEC00A10EE104AA3B220
:103E6000DA4C94ED020ABCEEC00A10EE104AA2B27F
:103E7000D64C94ED010ABCEEC00A10EE104AA1B275
:103E8000D24C94ED000ABCEEC00A10EE104AA0B26B
:103E9000FFF784F9CAE0CB48807B40B10020C949D4
:103EA00088734FF4E4717B20FFF72DF9BEE0C5481D
:103EB000407958B30020C3494871C548D0ED1E4A27
:103EC000B0EE644AD0ED1F4AF0EE643AD0ED1D4AE0
:103ED000B0EE643AD0ED1A4AF0EE642AD0ED1B4AF7
:103EE000B0EE642AD0ED194AF0EE641AD0ED164A0D
:103EF000B0EE641AD0ED174AF0EE640AD0ED154A20
:103F0000B0EE640A0120FEF7E5FF8FE0AD4880794E
:103F100058B30020AB498871AE48D0ED1E4AB0EED0
:103F2000644AD0ED1F4AF0EE643AD0ED1D4AB0EE7F
:103F3000643AD0ED1A4AF0EE642AD0ED1B4AB0EE96
:103F4000642AD0ED194AF0EE641AD0ED164AB0EEAC
:103F5000641AD0ED174AF0EE640AD0ED154AB0EEBF
:103F6000640A0220FEF7B6FF60E09648C07958B3B5
:103F700000209449C8719848D0ED214AB0EE644AB7
:103F8000D0ED224AF0EE643AD0ED204AB0EE643A29
:103F9000D0ED1D4AF0EE642AD0ED1E4AB0EE642A40
:103FA000D0ED1C4AF0EE641AD0ED194AB0EE641A56
:103FB000D0ED1A4AF0EE640AD0ED184AB0EE640A69
:103FC0000320FEF787FF31E07E48007AF8B1002039
:103FD0007C4908728048D0ED251AB0EE611AD0ED08
:103FE000261AF0EE610AD0ED241AB0EE610A1FED38
:103FF0008F4A5FED903A1FED913A5FED922A1FEDE7
:10400000932A5FED941A0420FEF764FF0EE06D48DA
:10401000407C02280AD100206A4948741FED9B0A9F
:1040200000231A4619461846FEF7C3FE00F0B7FFF4
:1040300006B010BD70B52DED048B04460E4600256C
:10404000002004E0215C2944CDB2411CC8B2711E9D
:104050008142F7DCA01910F8010CA84202D0BDEC97
:10406000048B70BD2078AA2802D16078AF2800D0D8
:10407000F5E7A078012822D12079012802D15749FB
:1040800008701CE02079022803D1012053494870B0
:1040900015E02079032804D10120504908704870A8
:1040A0000DE02079042803D101204D49087006E075
:1040B0002079212802DB2079262800DD00BFA078A6
:1040C000022814D12079012806D13E49487188710F
:1040D000C8710872487288722079A02802D1012024
:1040E000384948702079A12801D1FCF743FBA0781A
:1040F000032836D13B480078012802D0022000F086
:10410000A5FE2079617941EA002037498880A079AD
:10411000E17941EA00203449C880207A617A41EA95
:10412000002031490880A07AE17A41EA00202E4936
:104130004880207B617B41EA00202B490881A07BDD
:10414000E17B41EA002028494881207C617C41EAEA
:10415000002025498881A07CE17C41EA0020224999
:10416000C881A07810287DD12179090209B262792D
:1041700041EA020010F0D9F941EC190B9FED1B0B3D
:1041800053EC102B10F0F0F841EC180B10F02EFA55
:104190000F494865A179090209B2E27941EA0200B2
:1041A00010F0C3F941EC190B9FED100B53EC102BE1
:1041B00010F0DAF841EC180B10F018FA0449C86551
:1041C000217A17E0382B0020C02B0020942A0020F1
:1041D000C0280020842900208C0700209C33002068
:1041E0000D060020C80400207C2B0020FCA9F1D281
:1041F0004D62503F090209B2627A41EA020010F0B2
:1042000094F941EC190B1FED070B53EC102B10F038
:10421000ABF841EC180B10F0E9F9FE498865A17A7A
:10422000090209B2E27A41EA020010F07EF941EC9B
:10423000190B1FED120B53EC102B10F095F841ECFD
:10424000180B10F0D3F9F3494866217B090209B233
:10425000627B41EA020010F068F941EC190B1FED96
:104260001D0B00E075E053EC102B10F07DF841ECD5
:10427000180B10F0BBF90146E648C166A17B0902A4
:1042800009B2E27B41EA020010F04FF941EC190B50
:104290001FED2A0B53EC102B10F066F841EC180BB5
:1042A00010F0A4F90146DB488166217C090209B2BD
:1042B000627C41EA020010F038F941EC190B1FED65
:1042C000350B53EC102B10F04FF841EC180B10F09D
:1042D0008DF9D0494867A17C090209B2E27C41EA24
:1042E000020010F022F941EC190B1FED400B53ECCA
:1042F000102B10F039F841EC180B10F077F901464B
:10430000C448C167217D090209B2627D41EA020009
:1043100010F00BF941EC190B1FED4C0B53EC102B6B
:1043200010F022F841EC180B10F060F90146B94882
:104330008167B948007838B90120B7490870A0787A
:10434000B6490870B6480570FCF70CFA0120B5496B
:104350000880A07811287DD12179090209B26279FB
:1043600041EA020010F0E1F841EC190B1FED610B7E
:1043700053EC102B0FF0F8FF41EC180B10F036F94E
:10438000A9494865A179090209B2E27941EA020026
:1043900010F0CBF841EC190B1FED6C0B53EC102B0C
:1043A0000FF0E2FF41EC180B10F020F99E49C865B0
:1043B000217A090209B2627A41EA020010F0B5F8E6
:1043C00041EC190B1FED770B53EC102B0FF0CCFFCA
:1043D00041EC180B10F00AF993498865A17A09029B
:1043E00009B2E27A41EA020010F09FF841EC190BA1
:1043F0001FED820B53EC102B0FF0B6FF41EC180BA6
:1044000010F0F4F888494866217B090209B2627B02
:1044100041EA020010F089F841EC190B1FED8D0BF9
:1044200053EC102B0FF0A0FF41EC180B10F0DEF84E
:1044300001467D48C166A17B090209B2E27B41EADF
:10444000020010F072F841EC190B1FED980B53ECC1
:10445000102B00E05CE00FF087FF41EC180B10F030
:10446000C5F8014670488166217C090209B2627C68
:1044700041EA020010F059F841EC190B1FEDA50BB1
:1044800053EC102B0FF070FF41EC180B10F0AEF84E
:1044900065494867A17C090209B2E27C41EA020051
:1044A00010F043F841EC190B1FEDB00B53EC102B3F
:1044B0000FF05AFF41EC180B10F098F801465A48DB
:1044C000C167217D090209B2627D41EA020010F054
:1044D0002CF841EC190B1FEDBB0B53EC102B0FF01C
:1044E00043FF41EC180B10F081F801464E488167FC
:1044F0004948007838B9012047490870A0784749F1
:10450000087047480570FCF72DF9012045490880DF
:10451000A07812287CD12179090209B2627941EA96
:10452000020010F002F841EC190B1FEDD00B53EC18
:10453000102B0FF019FF41EC180B10F057F83B4906
:104540000866A179090209B2E27941EA02000FF096
:10455000ECFF41EC190B1FEDDB0B53EC102B0FF0B4
:1045600003FF41EC180B10F041F830498866217ABE
:10457000090209B2627A41EA02000FF0D6FF41EC6B
:10458000190B1FEDE60B53EC102B0FF0EDFE41EC79
:10459000180B10F02BF825494866A17A090209B2D8
:1045A000E27A41EA02000FF0C0FF41EC190B1FED67
:1045B000F10B53EC102B0FF0D7FE41EC180B10F061
:1045C00015F81A490867217B090209B2627B41EAA2
:1045D00002000FF0AAFF41EC190B1FEDFC0B53EC8E
:1045E000102B0FF0C1FE41EC180B0FF0FFFF0F492D
:1045F0008867A17B090209B2E27B41EA02000FF061
:1046000094FF41EC190B9FED0A0B53EC102B13E0B8
:104610006FE00000C0280020382B0020AC040020F0
:10462000AD040020AE040020842900208C07002067
:10463000FCA9F1D24D62503F0FF096FE41EC180BF1
:104640000FF0D4FF9C494867217C090209B2627CC3
:1046500041EA02000FF069FF41EC190B1FED0C0B52
:1046600053EC102B0FF080FE41EC180B0FF0BEFF47
:104670009149C1F88000A17C090209B2E27C41EABB
:1046800002000FF052FF41EC190B1FED170B53EC1A
:10469000102B0FF069FE41EC180B0FF0A7FF8649B5
:1046A000C1F88800217D090209B2627D41EA020059
:1046B0000FF03BFF41EC190B1FED230B53EC102BBC
:1046C0000FF052FE41EC180B0FF090FF7A49C1F841
:1046D00084007A48007838B9012078490870A078B9
:1046E0007749087077480570FCF73CF80120764957
:1046F0000880A078132854D12179090209B262797F
:1047000041EA02000FF011FF41EC190B1FED380BCD
:1047100053EC102B0FF028FE41EC180B0FF066FF46
:104720006549C1F89000A179090209B2E27941EA2C
:1047300002000FF0FAFE41EC190B1FED430B53EC96
:10474000102B0FF011FE41EC180B0FF04FFF5A49E0
:10475000C1F89800217A090209B2627A41EA02009E
:104760000FF0E3FE41EC190B1FED4F0B53EC102B38
:104770000FF0FAFD41EC180B0FF038FF4E49C1F86D
:1047800094004E48007838B901204C490870A07850
:104790004B4908704B480570FBF7E4FF01204A497C
:1047A0000880A07814280AD14448007838B901203C
:1047B00042490870A0784249087042480570A078C4
:1047C00015280AD13D48007838B901203B490870C6
:1047D000A0783B4908703B48057000BF3FE410B526
:1047E00004463A48007838B9AA2C05D10120374947
:1047F0000870374804705DE034480078012807D11C
:10480000AF2C05D10220314908703148447051E085
:104810002E480078022807D1F12C05DA03202B4915
:1048200008702B48847045E02848007803280CD194
:10483000322C0ADA0420254908702548C47025481E
:10484000047000202449087034E0204800780428CF
:1048500019D120480078002815DD1E480078401E38
:104860001C4908701C4800781B490978491C1A4AE1
:104870001170001D16490C5416480078D0B9052057
:104880001249087016E01148007805280FD1002061
:104890000E49087010480078001D0D490C540E4850
:1048A0000078401DC1B20A48FFF7C4FB02E00020B7
:1048B0000649087010BD00008C070020382B00202E
:1048C000AC040020AD040020AE040020BC04002095
:1048D0008C2B0020BA040020BB04002002460020DC
:1048E00007E0FC4B1B5632F8133021F81030431C04
:1048F000D8B20828F5DB7047F748D0ED020A9FEDE3
:10490000F71AF4EEC10AF1EE10FA51D2D0ED030A13
:104910009FEDF21AF4EEC10AF1EE10FA1AD2F04845
:10492000B0F90000401CC8B3EE480078B0B3EC48C2
:10493000B0F9000000EE900AF8EEE00A9FEDEA1AE6
:1049400041EE000AFDEEE00A10EE900A00B2E449E2
:10495000088030E0E048D0ED030A9FEDE41AF4EE61
:10496000C10AF1EE10FA1ADDDD48B0F90000401C72
:10497000A0B1DC48007888B9D948B0F9000000EE51
:10498000900AF8EEE00A9FEDD81A41EE000AFDEE1B
:10499000E00A10EE900A00B2D14908800BE0D0483E
:1049A000B0F90000401C30B90020CD49088002E079
:1049B0000020CB490880CA48B0F90000B0F57A7FE2
:1049C00010DD4FF0FF30C6490880C648007830B986
:1049D0000120C44908700220C549487002E0002047
:1049E000C049087070473FB5F0EE401A0546C1480F
:1049F0000078012804D1C0492846FFF76FFF07E07F
:104A0000BC480078022803D1BB49BC48FFF766FFC9
:104A1000002407E2B84830F8140040F6C411884278
:104A200005DCB54830F81400B0F5FA7F07DA01204C
:104A3000B34908550020B34921F8140012E0B148E9
:104A400030F81400401CAF4921F81400084630F833
:104A50001400C82806DD4FF4FA6021F81400002085
:104A6000A7490855A3480078012803D0A148007839
:104A700002287CD1A248005D0028FAD19E4830F877
:104A8000140000B22DF814009F4830F914009F491B
:104A900031F9141088426BDD9D48005D002878D103
:104AA0003DF91400994931F91410401A00EE100A2A
:104AB000B8EEC01A944830F91400944931F9141032
:104AC000401A00EE100AB8EEC00AC1EE000A9FEDCF
:104AD000861A9FED900A10EE810ABDEEC00A10EE14
:104AE000100A00B210F5FA7F01DA8B484DE03DF96B
:104AF0001400864931F91410401A00EE100AB8EE7D
:104B0000C01A814830F91400804931F91410401A54
:104B100000EE100AB8EEC00AC1EE000A9FED721A4C
:104B20009FED7C0A10EE810ABDEEC00A10EE100A5D
:104B300000B2B0F5FA7F02DD4FF4FA7025E03DF9DE
:104B40001400724931F91410401A00EE100AB8EE40
:104B5000C01A6D4830F914006C4931F91410401A2C
:104B600000EE100AB8EEC00AC1EE000A02E08AE0C8
:104B700086E00EE09FED5C1A9FED660A10EE810A5A
:104B8000BDEEC00A10EE100A00B2644921F814000C
:104B900079E03DF914005D4931F91410401A00EE36
:104BA000100AB8EEC01A584830F91400574931F9C4
:104BB0001410401A00EE100AB8EEC00AC1EE000A46
:104BC0009FED491A9FED530A10EE810ABDEEC00A0F
:104BD00010EE100A00B210F5FA7F01DA4E4849E0F3
:104BE0003DF91400494931F91410401A00EE100A39
:104BF000B8EEC01A444830F91400444931F9141091
:104C0000401A00EE100AB8EEC00AC1EE000A9FED8D
:104C1000361A9FED400A10EE810ABDEEC00A10EE72
:104C2000100A00B2B0F5FA7F02DD4FF4FA7021E00D
:104C30003DF91400354931F91410401A00EE100AFC
:104C4000B8EEC01A304830F91400304931F9141068
:104C5000401A00EE100AB8EEC00AC1EE000A9FED3D
:104C6000221A9FED2C0A10EE810ABDEEC00A10EE4A
:104C7000100A00B2404200B2284921F8140002E0B4
:104C80000020184908709FED260A21EE800A254869
:104C900080ED000A3DF9140000EE100AB8EEC00ADB
:104CA0000D4800EB8400D0ED000A30EE600AB5EE4E
:104CB000C00AF1EE10FA37DD3DF9140000EE100ADB
:104CC000B8EEC00A044800EB8400D0ED000A30EED4
:104CD000600A38E0C0040020F02B00200000C8C3A8
:104CE000020500200005002000007A440000C843AF
:104CF0009C330020C8040020602C00207C2B002066
:104D0000C9040020502C0020D4040020E40400201A
:104D1000F40400200000FA430CFEFFFFC02B00202B
:104D200034337B42FC0400203DF9140000EE100AED
:104D3000B8EEC00A6A4800EB8400D0ED000A30EEFD
:104D4000600AB1EE400ADFED670AB4EEE00AF1EE68
:104D500010FA1DD2644830F9140000EE100AB8EEC3
:104D6000C00A5F4800EB8400D0ED000A70EE600AD4
:104D70005B4800EB840090ED000A5C4890ED001A5F
:104D800001EE200A564800EB840080ED000A20E086
:104D9000554830F9140000EE100AB8EEC00A504829
:104DA00000EB8400D0ED000A70EE600A4C4800EB86
:104DB000840090ED000A4D4890ED001AB6EE002AEE
:104DC00021EE021A01EE200A454800EB840080ED36
:104DD000000A434800EB840090ED000A444800EBD1
:104DE0008400D0ED000A30EE600A424800EB8400F7
:104DF00080ED000A3A4800EB840090ED000A3C4840
:104E000000EB840080ED000A374830F9140000EE12
:104E1000100AB8EEC00A384800EB840080ED000AA2
:104E2000601CC4B2082CFFF6F5ADB0EE610AFFF7C6
:104E300063FD32480088401C80B230490880C82891
:104E400003DD002008802E4908703FBD2C49087002
:104E500000212A4A118070472A48007848B120482A
:104E600090ED020A5FED630AB4EEE00AF1EE10FA8B
:104E700027D21B4890ED040ADFED230AB4EEE00AC6
:104E8000F1EE10FA03D200202049087026E0144801
:104E900090ED040ADFED1E0AB4EEE00AF1EE10FA1E
:104EA00003D201201949087018E01A480078012837
:104EB00003D102201549087010E001201349087041
:104EC0000CE0074890ED040ADFED0F0AB4EEE00AAB
:104ED000F1EE10FA02D200200C4908707047000071
:104EE000F02B00200000C842C02B0020FC04002052
:104EF000102C0020302C0020D02B0020D2040020C9
:104F0000C804002000050020000048C3040500205C
:104F1000000048439A0600200CF0A2BB7047002016
:104F20007047002070470020704700207047002025
:104F30007047002070470020704700207047002015
:104F40007047002070470020704700207047002005
:104F50007047002070470CF0AABB704700207047D4
:104F6000002070470CF0EEB97047000010B50BF050
:104F7000EDFB01200BF0F5FB10BD70B502460020E3
:104F80000AE0145C864B1D781B785B1C844E3370E2
:104F9000844B5C55431CD8B28842F2DB70BD10B51F
:104FA0007F4800788049097888425BDD7C4800783A
:104FB0007D490978401A3F281BDB00207B49087097
:104FC0003F207B49087000200BE077490A78097878
:104FD000491C754B197073498A5C754B411C5A54B6
:104FE000C8B23F28F1DB4022714900200CF045FC9B
:104FF0009FE06E480078401C6C49087008460078B5
:105000006C4909788842F3D10020684908706448E7
:10501000007865490978401A65490870002015E054
:105020005F490978604A1278891A814208DD5E4931
:10503000097801445B4A525C5D4B411C5A5403E0C1
:1050400000225B4B411C5A54411CC8B23F28E7DB8D
:1050500053480078544908704022554900200CF00C
:105060000CFC66E04E4800784F490978884260DAC7
:105070004D480078C0F580704949097808443F28B8
:105080001BDB0020494908703F2049490870002077
:105090000BE045490A780978491C434B197041498E
:1050A0008A5C434B411C5A54C8B23F28F1DB402272
:1050B0003F4900200CF0E1FB3BE03C480078401CFD
:1050C0003A490870084600783A490978884230D150
:1050D0000020364908703448007840423049097849
:1050E000084433490870002018E02F490978C1F5B9
:1050F00080712B4A12781144814209DD2A490978CE
:105100000144C9B2274A525C294B411C5A5403E05E
:105110000022274B411C5A54411CC8B23F28E4DBF3
:105120001F480078204908704022214900200CF0D7
:10513000A4FB10BD10B50446012C02D0032C11D1E4
:105140000EE059B923B1012B05D0022B04D100E0A8
:1051500000BF402010BD00BF00BF00BF00BF01E086
:105160000120F7E700BF0020F4E72DE9F0470646ED
:10517000884614469946089F022E02D0032E0CD171
:105180000AE0012504E0605DFFF729FB681CC5B259
:105190002078A842F7DA00E000BF00BFBDE8F08742
:1051A00011050020902F002010050020120500207E
:1051B000903000200F05002010B505480FF026F8AC
:1051C000022101EB4000C0B210BD02487047000050
:1051D000D4300020ED30002030B504460846158854
:1051E0006D1CADB21580854204DD002515800125BA
:1051F000558007E01588854201D1002501E015881A
:105200006D1C5580158804EB850585ED000A5588D1
:1052100004EB8505D5ED000A30EE601A00EE900A29
:10522000F8EE601AC1EE210A93ED001A70EE810AC1
:10523000C3ED000A30BD70B58BB0F0EE400A022815
:1052400001DA0B2903DB9FED7B0A0BB070BD7A4CB2
:10525000245C641CE4B2784D2C548C4201DB0024A5
:105260002C5400EB400404EBC004744D05EB8404A3
:10527000714D2D5C04EB8504C4ED000A002211E0A1
:1052800000EB400404EBC0046C4D05EB840404EB1C
:10529000820494ED000A6C4604EB820484ED000A5B
:1052A000541CE2B28A42EBDB00222DE0002325E011
:1052B0006C4604EB830494ED000A6D465C1C05EB20
:1052C0008404D4ED001AB4EEE10AF1EE10FA13DD15
:1052D0006C4604EB830494ED001A5C1C05EB84041B
:1052E00094ED000A6C4604EB830484ED000A5C1C18
:1052F00005EB840484ED001A5C1CE3B24C1EA41A76
:105300009C42D5DC541CE2B24C1E9442CEDC0C46CE
:1053100001EBD4756D106E4606EB850595ED000A20
:1053200093E770B52DED028B04460D461646D4ED7D
:10533000020AB0EE600AFDF725FBF0EE408AD4EDDC
:10534000010AB0EE600AFDF71DFB38EE800AB0EEF0
:10535000408AFDF71CFB3A4880ED000AD4ED020AB2
:10536000B0EE600AFDF70EFBF0EE408AD4ED000AC5
:10537000B0EE600AFDF706FB38EE800AB0EE408A18
:10538000FDF705FB2F4880ED000A94ED020AB5EE0B
:10539000C00AF1EE10FA02D24FF0FF3000E0012017
:1053A0002949087095ED000A2548D0ED000A20EE45
:1053B000200A94ED001A084690F9000000EE900AC9
:1053C000F8EEE00A61EE200A95ED021A00EEC10A3D
:1053D00086ED000A084690F9000000EE100AB8EECB
:1053E000C00A1848D0ED000A20EE200AD5ED010AC7
:1053F00020EE200AD4ED010A95ED021A00EEC10A52
:1054000086ED010A94ED000AD5ED000A20EE200A8F
:10541000D4ED010A95ED011A00EE810AD4ED020ADD
:1054200095ED021A00EE810A86ED020ABDEC028BB0
:1054300070BD0000000000001C0500202431002089
:1054400020050020240500201E05002010B52DEDAC
:10545000068BF0EE408AF0EE609ADFEDFE0A79EE00
:10546000E00AB0EE600ADFEDFC0AFDF717FCDFEDA5
:10547000FB0A20EE200ADFEDFA0A80EE201AF94836
:1054800080ED001A90ED000ADFEDF70AB4EEE00AB5
:10549000F1EE10FA02D29FEDF40A0FE0F14890ED20
:1054A000000ADFEDEE0AB4EEE00AF1EE10FA02DDDA
:1054B0009FEDEA0A02E0EB4890ED000AE94880ED32
:1054C000000AEA4890ED000ADFEDE90AB4EEE00ACE
:1054D000F1EE10FA0CDDE34890ED000AB5EEC00ADB
:1054E000F1EE10FA1ADD9FEDE30A80ED000A15E0F7
:1054F000DE4890ED000AF3EE040AB4EEE00AF1EEA5
:1055000010FA0BD2D74890ED000AB5EEC00AF1EEC2
:1055100010FA03D29FEDD70A80ED000AD34890ED30
:10552000000AD048D0ED000A00EEA80ACF4880ED6E
:10553000000A9FEDD10AF4EEC09AF1EE10FA19D2EA
:105540009FEDCE0A68EE800AB7EE001A81EE200ABF
:10555000F7EE000A30EE200AB7EE001AC1EE000A9C
:1055600090ED000AB1EE401A90ED000A00EE810ABB
:1055700080ED000AC248B0F9000000EE100AB8EE53
:10558000C00AC0EE280AB0EE60AAB0EE4A0A0521B1
:105590000020FFF750FEB0EE409ABA48008800EEB7
:1055A000100AB8EE400A05210120FFF744FEB0EED4
:1055B000408A9FEDB50AB4EEC08AF1EE10FA47D2E8
:1055C000B5EEC09AF1EE10FA02DDB0EE490A01E044
:1055D000B1EE490ADFEDA80AB4EEE00AF1EE10FAE6
:1055E0001BD29FEDAA0A28EE800AF7EE000A80EE91
:1055F000801AB7EE000A31EE000AB7EE001AC1EECB
:10560000000AA34890ED000A39EE401A90ED000A16
:1056100000EE810A80ED000A1AE09FED9E0A68EE16
:10562000800AB7EE001A81EE200AF7EE000A30EE8B
:10563000200AB7EE001AC1EE000A954890ED000A64
:1056400039EE401A90ED000A00EE810A80ED000A62
:105650009FED8D0AB4EEC08AF1EE10FA37D28E4873
:1056600090ED000A38EE400AB5EEC00AF1EE10FAED
:1056700004DD90ED000A38EE400A06E0864890ED21
:10568000000A38EE400AB1EE400ADFED7B0AB4EEC4
:10569000E00AF1EE10FA1BD29FED7C0A28EE800A98
:1056A000F7EE000A80EE801AB7EE000A31EE000A2B
:1056B000B7EE001AC1EE000A774890ED000A38EE06
:1056C000401A90ED000A00EE810A80ED000A8CE09D
:1056D000714890ED000A38EE400AB5EEC00AF1EECE
:1056E00010FA04DD90ED000A38EE400A06E06A4840
:1056F00090ED000A38EE400AB1EE400ADFED580A9C
:10570000B4EEE00AF1EE10FA1BD29FED640A28EE27
:10571000800AB7EE001AC1EE000AB7EE000A30EEBA
:10572000800AB7EE001AC1EE000A5B4890ED000A4D
:1057300038EE401A90ED000A00EE810A80ED000A72
:1057400053E0554890ED000A38EE400AB5EEC00A25
:10575000F1EE10FA04DD90ED000A38EE400A06E0A2
:105760004D4890ED000A38EE400AB1EE400ADFEDF8
:105770004C0AB4EEE00AF1EE10FA1BD29FED490A92
:1057800068EE800AB7EE001A81EE200AF7EE000AF2
:1057900030EE200AB7EE001AC1EE000A3E4890ED46
:1057A000000A38EE401A90ED000A00EE810A80ED02
:1057B000000A1AE09FED3C0A28EE800AF7EE000A84
:1057C00080EE801AB7EE000A31EE000AB7EE001A3A
:1057D000C1EE000A304890ED000A38EE401A90ED14
:1057E000000A00EE810A80ED000A304890ED000AC0
:1057F0001E48D0ED000A284890ED001A70EEC10A4C
:1058000020EE200A2A4880ED000A284890ED020A7E
:105810002748D0ED000A60EE200A90ED030A00EE62
:10582000A80A80ED030A90ED030A2248D0ED000A91
:10583000F1EE600A9FED091A60EE810AB4EEE00A0B
:10584000F1EE10FA3BD290ED000AB1EE400ADFED26
:10585000030A31E00000FA4300004842000096438A
:105860000000484354050020000096C3580500205E
:105870000080BB44000000000000C8429CC4203FE0
:10588000A00600209C0600200000FA44C3F5484111
:105890005C050020C3F5484060050020570EDD4040
:1058A0000000C843EB267140EB26F13F4433002053
:1058B000303300201000002020EE200A18E0FB48C2
:1058C00090ED030AFA48D0ED000A1FED1C1A60EEB5
:1058D000810AB4EEE00AF1EE10FA06DD90ED000A5E
:1058E0005FED220A20EE200A02E0F04890ED030A64
:1058F000EE4880ED030A90ED000AD0ED010A30EE8B
:10590000600ADFEDEC0A20EE200AEB48D0ED000A39
:10591000F1EE600A60EEA80A9FEDE81A01EE200A97
:10592000E748D0ED010A20EE200AE04880ED020AA7
:1059300090ED000AD0ED030A30EE200AD0ED020A05
:1059400030EE200A80ED040A90ED040ADFEDDD0A56
:10595000B4EEE00AF1EE10FA02D29FEDDA0A0FE09F
:10596000D24890ED040A5FED450AB4EEE00AF1EE8C
:1059700010FA02DD1FED490A02E0CC4890ED040A5E
:10598000CA4880ED040A90ED040ACF4880ED000A71
:10599000C64890ED000A80ED010ABDEC068B10BDF3
:1059A00010B52DED068BB0EE408AB0EE609AF0EEA9
:1059B000418AF0EE619AB0EE000A29EE000AB5EED7
:1059C000C00AF1EE10FA02D21FED560A11E0B0EE55
:1059D000000A29EE000ADFEDBD0AB4EEE00AF1EE9E
:1059E00010FA02DD9FEDB90A03E0B0EE000A29EEDD
:1059F000000AB0EE40AA9FEDB60A68EE000AB7EEC4
:105A0000001A81EE200AF7EE000A30EE200AB7EE07
:105A1000001AC1EE000AAF4890ED000A3AEE401AB3
:105A200090ED000A00EE810A80ED000AAA4890ED90
:105A3000000A9FEDAA1AC0EE010AA94890ED000ADB
:105A40009FEDA81A00EE810AA74880ED000A5FEDDD
:105A5000760A90ED000AFDF7D2F8A448D0ED000ACE
:105A600040EE080AC0ED000A934890ED000AA048F5
:105A7000D0ED000A30EE600AC0EE080A9A4890EDB8
:105A8000000A70EEC00A9FED8B0A28EE001A9448B7
:105A900090ED000A01EE200A80ED000A90ED000A68
:105AA000DFED880AB4EEE00AF1EE10FA02D29FEDC3
:105AB000850A0FE08A4890ED000A5FED9A0AB4EE7D
:105AC000E00AF1EE10FA02DD1FED9E0A02E08448C2
:105AD00090ED000A824880ED000A9FED860A28EECC
